:020000040800F2
:1000000000000320F14E000877380008833800080C
:100010008B380008933800089B3800080000000067
:10002000000000000000000000000000A3380008ED
:10003000B138000800000000BF380008CD380008C3
:10004000494F0008494F0008494F0008D9380008B7
:10005000494F0008494F0008E5380008F338000808
:10006000494F000801390008494F000811390008BC
:100070002539000839390008494F0008494F000860
:10008000494F0008494F0008494F0008494F0008F0
:10009000494F0008494F0008494F0008494F0008E0
:1000A000494F0008494F0008494F0008494F0008D0
:1000B000494F0008494F0008494F0008494F0008C0
:1000C000494F0008494F00084D390008494F0008C2
:1000D00061390008494F0008494F0008494F00089E
:1000E000F9390008494F0008494F0008494F0008F6
:1000F000093A0008153A0008213A0008494F00085B
:10010000494F0008494F0008494F0008494F00086F
:10011000494F0008494F0008494F0008494F00085F
:10012000494F0008494F0008494F0008494F00084F
:0C013000494F0008494F0008494F0008E3
:1001400010B5054C237833B9044B13B10448AFF311
:1001500000800123237010BDE00400200000000097
:10016000F467040808B5034B1BB103490348AFF318
:10017000008008BD00000000E4040020F4670408CB
:1001800001F0FF01102A2BDB10F0070F08D010F848
:10019000013B013A8B422DD010F0070F42B3F6D14C
:1001A000F0B441EA012141EA014122F007047FF065
:1001B00000070023F0E80256083C85EA010586EABC
:1001C000010685FA47F5A3FA87F586FA47F6A5FAF8
:1001D00087F68EB9EED1F0BC01F0FF0102F0070204
:1001E00032B110F8013B013A83EA010313B1F8D1AF
:1001F0000020704701387047002D06BF3546033890
:10020000073815F0010F07D1013015F4807F02BFC8
:10021000013015F4C03F0130F0BC0138704700BF19
:10022000034613F8012B002AFBD1181A0138704736
:1002300081F0004102E000BF83F0004330B54FEA97
:1002400041044FEA430594EA050F08BF90EA020F04
:100250001FBF54EA000C55EA020C7FEA645C7FEA97
:10026000655C00F0E2804FEA5454D4EB5555B8BFBA
:100270006D420CDD2C4480EA020281EA030382EA2B
:10028000000083EA010180EA020281EA0303362DBD
:1002900088BF30BD11F0004F4FEA01314FF4801C90
:1002A0004CEA113102D0404261EB410113F0004FA2
:1002B0004FEA03334CEA133302D0524263EB430359
:1002C00094EA050F00F0A780A4F10104D5F1200EF7
:1002D0000DDB02FA0EFC22FA05F2801841F1000152
:1002E00003FA0EF2801843FA05F359410EE0A5F126
:1002F00020050EF1200E012A03FA0EFC28BF4CF057
:10030000020C43FA05F3C01851EBE37101F000450C
:1003100007D54FF0000EDCF1000C7EEB00006EEB19
:100320000101B1F5801F1BD3B1F5001F0CD34908A3
:100330005FEA30004FEA3C0C04F101044FEA4452FA
:1003400012F5800F80F09A80BCF1004F08BF5FEA81
:10035000500C50F1000041EB045141EA050130BD61
:100360005FEA4C0C404141EB0101013C28BFB1F573
:10037000801FE9D291F0000F04BF01460020B1FABE
:1003800081F308BF2033A3F10B03B3F120020CDA91
:100390000C3208DD02F1140CC2F10C0201FA0CF06F
:1003A00021FA02F10CE002F11402D8BFC2F1200CD4
:1003B00001FA02F120FA0CFCDCBF41EA0C0190408A
:1003C000E41AA2BF01EB0451294330BD6FEA0404D3
:1003D0001F3C1CDA0C340EDC04F11404C4F12002BE
:1003E00020FA04F001FA02F340EA030021FA04F3D0
:1003F00045EA030130BDC4F10C04C4F1200220FA27
:1004000002F001FA04F340EA0300294630BD21FA64
:1004100004F0294630BD94F0000F83F4801306BF2A
:1004200081F480110134013D4EE77FEA645C18BF1E
:100430007FEA655C29D094EA050F08BF90EA020FB5
:1004400005D054EA000C04BF1946104630BD91EAAD
:10045000030F1EBF0021002030BD5FEA545C05D1B0
:100460004000494128BF41F0004130BD14F58004EF
:100470003CBF01F5801130BD01F0004545F0FE4163
:1004800041F470014FF0000030BD7FEA645C1ABF98
:10049000194610467FEA655C1CBF0B46024650EACF
:1004A000013406BF52EA033591EA030F41F40021FB
:1004B00030BD00BF90F0000F04BF0021704730B581
:1004C0004FF4806404F132044FF000054FF0000156
:1004D00050E700BF90F0000F04BF0021704730B517
:1004E0004FF4806404F1320410F0004548BF4042EC
:1004F0004FF000013EE700BF42004FEAE2014FEA41
:1005000031014FEA02701FBF12F07F4393F07F4F1B
:1005100081F06051704732F07F4208BF704793F01E
:100520007F4F04BF41F40021704730B54FF4607431
:1005300001F0004521F000411CE700BF50EA010234
:1005400008BF704730B54FF000050AE050EA0102DD
:1005500008BF704730B511F0004502D5404261EB4D
:1005600041014FF4806404F132045FEA915C3FF48E
:10057000D8AE4FF003025FEADC0C18BF03325FEA2B
:10058000DC0C18BF033202EBDC02C2F1200300FADC
:1005900003FC20FA02F001FA03FE40EA0E0021FA01
:1005A00002F11444BDE600BF70B54FF0FF0C4CF4EF
:1005B000E06C1CEA11541DBF1CEA135594EA0C0FA1
:1005C00095EA0C0F00F0DEF82C4481EA030621EADC
:1005D0004C5123EA4C5350EA013518BF52EA033517
:1005E00041F4801143F4801338D0A0FB02CE4FF0C9
:1005F0000005E1FB02E506F00042E0FB03E54FF0F9
:100600000006E1FB03569CF0000F18BF4EF0010EF0
:10061000A4F1FF04B6F5007F64F5407404D25FEAEC
:100620004E0E6D4146EB060642EAC62141EA55519F
:100630004FEAC52040EA5E504FEACE2EB4F1FD0CE1
:1006400088BFBCF5E06F1ED8BEF1004F08BF5FEA5F
:10065000500E50F1000041EB045170BD06F0004611
:1006600046EA010140EA020081EA0301B4EB5C04BE
:10067000C2BFD4EB0C0541EA045170BD41F48011B6
:100680004FF0000E013C00F3AB8014F1360FDEBFDB
:10069000002001F0004170BDC4F10004203C35DAB7
:1006A0000C341BDC04F11404C4F1200500FA05F33A
:1006B00020FA04F001FA05F240EA020001F00042DB
:1006C00021F0004110EBD37021FA04F642EB060151
:1006D0005EEA430E08BF20EAD37070BDC4F10C047B
:1006E000C4F1200500FA04F320FA05F001FA04F23F
:1006F00040EA020001F0004110EBD37041F100012B
:100700005EEA430E08BF20EAD37070BDC4F1200535
:1007100000FA05F24EEA020E20FA04F301FA05F29D
:1007200043EA020321FA04F001F0004121FA04F245
:1007300020EA020000EBD3705EEA430E08BF20EA15
:10074000D37070BD94F0000F0FD101F0004640004F
:1007500041EB010111F4801F08BF013CF7D041EAD1
:10076000060195F0000F18BF704703F000465200D5
:1007700043EB030313F4801F08BF013DF7D043EAA6
:100780000603704794EA0C0F0CEA135518BF95EA5C
:100790000C0F0CD050EA410618BF52EA4306D1D1E3
:1007A00081EA030101F000414FF0000070BD50EA02
:1007B000410606BF1046194652EA430619D094EA8C
:1007C0000C0F02D150EA013613D195EA0C0F05D176
:1007D00052EA03361CBF104619460AD181EA0301CA
:1007E00001F0004141F0FE4141F470014FF0000082
:1007F00070BD41F0FE4141F4780170BD70B54FF01D
:10080000FF0C4CF4E06C1CEA11541DBF1CEA13559C
:1008100094EA0C0F95EA0C0F00F0A7F8A4EB05047E
:1008200081EA030E52EA03354FEA013100F0888075
:100830004FEA03334FF0805545EA131343EA12633E
:100840004FEA022245EA111545EA10654FEA0026F3
:100850000EF000419D4208BF964244F1FD0404F5AC
:10086000407402D25B084FEA3202B61A65EB030508
:100870005B084FEA32024FF480104FF4002CB6EBC5
:10088000020E75EB030E22BFB61A754640EA0C0045
:100890005B084FEA3202B6EB020E75EB030E22BF85
:1008A000B61A754640EA5C005B084FEA3202B6EBC6
:1008B000020E75EB030E22BFB61A754640EA9C0085
:1008C0005B084FEA3202B6EB020E75EB030E22BF55
:1008D000B61A754640EADC0055EA060E18D04FEA13
:1008E000051545EA16754FEA06164FEAC30343EAB3
:1008F00052734FEAC2025FEA1C1CC0D111F4801F80
:100900000BD141EA00014FF000004FF0004CB6E778
:1009100011F4801F04BF01430020B4F1FD0C88BF17
:10092000BCF5E06F3FF6AFAEB5EB030C04BFB6EB22
:10093000020C5FEA500C50F1000041EB045170BD15
:100940000EF0004E4EEA113114EB5C04C2BFD4EB42
:100950000C0541EA045170BD41F480114FF0000EC6
:10096000013C90E645EA060E8DE60CEA135594EA42
:100970000C0F08BF95EA0C0F3FF43BAF94EA0C0F45
:100980000AD150EA01347FF434AF95EA0C0F7FF4BA
:1009900025AF104619462CE795EA0C0F06D152EA0E
:1009A00003353FF4FDAE1046194622E750EA4106F2
:1009B00018BF52EA43067FF4C5AE50EA41047FF403
:1009C0000DAF52EA43057FF4EBAE12E74FF0FF3C68
:1009D00006E000BF4FF0010C02E000BF4FF0010C39
:1009E0004DF804CD4FEA410C7FEA6C5C4FEA430CB2
:1009F00018BF7FEA6C5C1BD001B050EA410C0CBF01
:100A000052EA430C91EA030F02BF90EA020F002062
:100A1000704710F1000F91EA030F58BF994208BFC9
:100A200090422CBFD8176FEAE37040F00100704786
:100A30004FEA410C7FEA6C5C02D150EA013C07D1DD
:100A40004FEA430C7FEA6C5CD6D152EA033CD3D028
:100A50005DF8040B704700BF8446104662468C4622
:100A60001946634600E000BF01B5FFF7B7FF002855
:100A700048BF10F1000F01BD4DF808EDFFF7F4FF7E
:100A80000CBF012000205DF808FB00BF4DF808ED09
:100A9000FFF7EAFF34BF012000205DF808FB00BF2C
:100AA0004DF808EDFFF7E0FF94BF012000205DF84E
:100AB00008FB00BF4DF808EDFFF7CEFF94BF012003
:100AC00000205DF808FB00BF4DF808EDFFF7C4FFFC
:100AD00034BF012000205DF808FB00BF4FEA410C45
:100AE0007FEA6C5C02D150EA013C0AD14FEA430C28
:100AF0007FEA6C5C02D152EA033C02D14FF0000065
:100B000070474FF0010070474FEA410212F50012A2
:100B100015D211D56FF47873B3EB625212D94FEA44
:100B2000C12343F0004343EA505311F0004F23FA2E
:100B300002F018BF404270474FF00000704750EA83
:100B4000013005D111F0004008BF6FF00040704740
:100B50004FF00000704700BF4A0011D212F500129A
:100B600011D20DD56FF47873B3EB62520ED44FEA05
:100B7000C12343F0004343EA505323FA02F0704785
:100B80004FF00000704750EA013002D14FF0FF30C3
:100B900070474FF0000070474FEA4102B2F1E04366
:100BA00024BFB3F5001CDCF1FE5C0DD901F0004C54
:100BB0004FEAC0024CEA5070B2F1004F40EB8300A4
:100BC00008BF20F00100704711F0804F21D113F1D0
:100BD0003872BCBF01F00040704741F480114FEA09
:100BE0005252C2F11802C2F1200C10FA0CF320FA92
:100BF00002F018BF40F001004FEAC1234FEAD323AF
:100C000003FA0CFC40EA0C0023FA02F34FEA430318
:100C1000CCE77FEA625307D150EA01331EBF4FF0A1
:100C2000FE4040F44000704701F0004040F0FE40BC
:100C300040F40000704700BF53B94AB9002908BF0B
:100C400000281CBF4FF0FF314FF0FF3000F0BEB95D
:100C5000ADF1080C6DE904CE00F03CF8DDF804E0DD
:100C6000DDE9022304B0704738B5002200230446B2
:100C70000D46FFF70BFF28B920462946BDE838404E
:100C800000F00AB8204605F1004100F005F84042A6
:100C900061EB410138BD00BFD0B50C4B00220646C8
:100CA0000F46FFF781FCFFF757FF0446FFF702FCF2
:100CB000074B0022FFF778FC02460B4630463946C8
:100CC000FFF7BAFAFFF748FF2146D0BD0000F03D1C
:100CD0000000F0412DE9F047089D8E460446884605
:100CE000002B4AD18A42174662D9B2FA82F64EB137
:100CF000C6F1200301FA06F820FA03F3B74043EAED
:100D00000808B4404FEA174E1FFA87FCB8FBFEF103
:100D1000230C0EFB118843EA084301FB0CF29A42B4
:100D200009D9FB1801F1FF3080F0EA809A4240F2C5
:100D3000E78002393B449A1AA3B2B2FBFEF00EFBE5
:100D4000102243EA024300FB0CFC9C4509D9FB1826
:100D500000F1FF3280F0D6809C4540F2D3803B44C6
:100D6000023840EA0140A3EB0C0300211DB1F3401F
:100D70000022C5E90032BDE8F0878B4205D90DB1EC
:100D8000C5E9000100210846F5E7B3FA83F100291F
:100D900046D1734502D3824200F20581841A6EEB7C
:100DA000030201209046002DE5D0C5E90048E2E7A6
:100DB000002A00F09080B2FA82F6002E40F0A48063
:100DC0008A1A030C4FEA174E80B2BCB20121B2FB63
:100DD000FEFC0EFB1C2243EA024304FB0CF29A4287
:100DE00007D9FB180CF1FF3802D29A4200F2E080DA
:100DF000C4469B1AB3FBFEF20EFB123340EA0343D8
:100E000002FB04F49C4207D9FB1802F1FF3002D226
:100E10009C4200F2CA8002461B1B42EA0C40A5E736
:100E2000C1F120068B4022FA06F71F430EFA01F4A7
:100E300020FA06F32EFA06FE4FEA1749234300FA7A
:100E400001F81FFA87FCBEFBF9F01C0C09FB10EE41
:100E500044EA0E4400FB0CFEA64502FA01F209D951
:100E60003C1900F1FF3A80F09C80A64540F2998041
:100E700002383C44A4EB0E041FFA83FEB4FBF9F3E2
:100E800009FB13444EEA044403FB0CFCA44508D9B7
:100E90003C1903F1FF3E80F08280A4457FD9023BDC
:100EA0003C4443EA0040A4EB0C04A0FB02EC644584
:100EB0007346E14662D35FD05DB1B8EB030264EBE9
:100EC000090404FA06F622FA01F31E43CC40C5E9F0
:100ED000006400214FE7B1FBF2FC010C41EA0E4136
:100EE00080B240EA01423B4638463C46B846BE46E0
:100EF0002026B1FBF7F1A2EB080241EA0C4166E7BC
:100F0000014618E710462CE7C6F120022EFA02F33C
:100F1000B740B14020FA02F24FEA174E0A43B3FB42
:100F2000FEF8BCB20EFB1833110C41EA034108FB7A
:100F300004F9B04089454FEA104380B23ED9791890
:100F400008F1FF3C01D289451FD8A1EB0901B1FB93
:100F5000FEF909FB04F80EFB191192B242EA0142B4
:100F6000424529D2BA1809F1FF31C4D24245C2D252
:100F7000A9F102013A44BEE7F0459DD2BEEB02035F
:100F80006CEB070C0138E14696E7A7EB09094944E9
:100F9000A8F1020CB1FBFEF909FB04F8DBE773468C
:100FA0007FE7504666E70846FDE63B44023A33E7F2
:100FB000ACF1020C3B441CE749469CE7A1EB09015C
:100FC000C446B1FBFEF909FB04F8C4E7704700BF53
:100FD000B0B588B000AF0B4B3C1D1D460FCD0FC404
:100FE00095E8070003C422800234130C23700DF02F
:100FF00065FB3B1D18460CF0F2FD00BF2037BD46D7
:10100000B0BD00BF1068040880B483B000AF786042
:10101000074BD3F8803023F0070205497B68134360
:10102000C1F8803000BF0C37BD465DF8047B7047C7
:101030000004005880B483B000AF7860064BD3F84A
:10104000902005497B681343C1F8903000BF0C37EE
:10105000BD465DF8047B70470008005880B483B03B
:1010600000AF78604FF0B0430A4AC3F89C204FF0BD
:10107000B043D3F89C3023F47C527B681B024FF0C2
:10108000B0411343C1F89C3000BF0C37BD465DF83A
:10109000047B7047FECAFECA80B483B000AF78609C
:1010A0004FF0B0439B6823F400424FF0B0417B689F
:1010B00013438B6000BF0C37BD465DF8047B70475F
:1010C00080B400AF044B1B68C3F30B031846BD4646
:1010D0005DF8047B704700BF002004E080B400AFDF
:1010E000044B1B681B0C9BB21846BD465DF8047B85
:1010F000704700BF002004E080B400AF054B1B69BF
:10110000044A23F00403136100BFBD465DF8047B6D
:10111000704700BF00ED00E080B483B000AF78609E
:101120007B68FF225A6200BF0C37BD465DF8047B26
:10113000704780B483B000AF78607B68CA225A627F
:101140007B6853225A6200BF0C37BD465DF8047BB2
:10115000704780B483B000AF786039607B689B686B
:1011600023F007023B681A437B689A6000BF0C3784
:10117000BD465DF8047B704780B500AF044B4FF46B
:1011800000421A6100F024F800F029F800BF80BD89
:101190000040005880B500AF00F035F800F04EF880
:1011A0000349002000F0CAFE00F056F800BF80BDE1
:1011B0002807002080B400AF00BFBD465DF8047B67
:1011C000704780B500AF5020FFF734FF00BF80BDEF
:1011D00080B400AF00BFBD465DF8047B704780B5AA
:1011E00082B000AF00200DF0FDFA78607B68002B24
:1011F00005D07B689B791846FFF730FF00BF00BF22
:101200000837BD4680BD80B500AFFFF7D3FFFFF7BD
:10121000D8FF00F003F800BF80BD000080B500AF2C
:101220000548FFF786FF00210348FFF792FF0248B9
:10123000FFF772FF00BF80BD0028004080B500AFFF
:101240004FF40040FFF728FF29F090FB0420FFF740
:10125000DBFE00BF80BD000080B588B000AF0DF0A0
:1012600073F8114A0021082029F044FD0F4B3B6020
:101270000F4B7B603B4619460E480CF027FF0E4B88
:10128000BB600E4BFB600E4B3B6140F23C537B61FD
:1012900007F1080318460DF09DF90DF04FF800BF57
:1012A0002037BD4680BD00BF05E10008340703209C
:1012B000C5120008DD1200084C0903204008032075
:1012C000F801032080B483B000AF0346FB7100BF78
:1012D0000C37BD465DF8047B7047000080B588B0D0
:1012E00000AF78607B685B680B33FB61FB691B8830
:1012F0009BB2A3F51243072B1FD801A252F823F08B
:1013000021130008331300083B1300083B130008A7
:101310003B1300083B1300083B1300083B13000875
:1013200007F10C0318460CF087FC786800F01BF8F6
:1013300004E0786800F006F800E000BF00BF203746
:10134000BD4680BD80B485B000AF78607B685B68C7
:101350000B33FB60FB680233BB6000BF1437BD4634
:101360005DF8047B704780B58AB000AF786007F104
:10137000080300221A605A609A60DA6000237B62D8
:1013800000233B627B685B680B33FB61FB690233C4
:10139000BB61BB691B78002B1DD1FFF719FE0F2322
:1013A0003B727F23BB72FFF799FE78627B6A9BB228
:1013B000BB82FFF785FE38623B6A9BB2FB8207F176
:1013C000080318460CF022FC0DF016FB002101204A
:1013D00029F0DEFA07E0BB691B78012B03D17B689B
:1013E00000221A7000BF00BF2837BD4680BD80B5FF
:1013F00084B000AF786003F017FEB8607B68FB60D4
:10140000FB68B3F1FF3F0AD003F026FE03461A46FD
:10141000FB681344FB6002E0FFF76EFE30BF03F091
:1014200003FE0246BB68D31AFA689A42F4D800BF9A
:1014300000BF1037BD4680BD80B500AF4FF0FF3014
:1014400029F0D6FA00BF80BD80B400AF00BFBD4612
:101450005DF8047B704780B582B000AF78600021F2
:10146000082029F069FC00BF0837BD4680BD80B563
:1014700082B000AF7860022029F0CAFC00BF0837B4
:10148000BD4680BD80B582B000AF7860022029F0F3
:10149000DFFC00BF0837BD4680BD80B485B000AF1B
:1014A00078604FF0B0439A6C4FF0B0417B681343C3
:1014B0008B644FF0B0439A6C7B681340FB60FB6811
:1014C00000BF1437BD465DF8047B704780B500AFA0
:1014D0000D4B0E4A1A600C4B00221A710A4B002267
:1014E0005A71094B00225A61074B00229A61064B40
:1014F00001221A62044803F055FF0346002B01D075
:1015000001F01CFA00BF80BDFC0400200030024046
:1015100080B582B000AF78607B681B68054A934253
:1015200003D14FF48050FFF7B8FF00BF0837BD4626
:1015300080BD00BF0030024080B485B000AF78604D
:101540004FF0B0439A6C4FF0B0417B6813438B640B
:101550004FF0B0439A6C7B681340FB60FB6800BFA0
:101560001437BD465DF8047B704780B500AF04209A
:10157000FFF7E2FF0120FFF7DFFF002200210B2031
:1015800003F0B1FE0B2003F0C8FE002200210C2066
:1015900003F0A9FE0C2003F0C0FE002200210D2064
:1015A00003F0A1FE0D2003F0B8FE00BF80BD80B4A3
:1015B00085B000AF78604FF0B043DA6C4FF0B041C7
:1015C0007B681343CB644FF0B043DA6C7B68134005
:1015D000FB60FB6800BF1437BD465DF8047B7047B5
:1015E00080B586B000AF3B1D00221A605A609A6039
:1015F000DA601A610420FFF7DAFF0220FFF7D7FF55
:101600000120FFF7D4FF1020FFF7D1FF002240F2A6
:1016100012214FF0904004F05BFD01224FF48071E5
:101620004FF0904004F054FD00220421374804F0AC
:101630004FFD00221021364804F04AFD40F21233DB
:101640007B600123BB600023FB6000233B613B1DEB
:1016500019464FF0904004F0D5FA04237B60012333
:10166000BB600023FB6000233B613B1D19462748FC
:1016700004F0C8FA0B237B604FF40413BB60012312
:10168000FB603B1D1946214804F0BCFA10237B6027
:101690000123BB600023FB6000233B613B1D194617
:1016A0001B4804F0AFFA4FF400437B604FF404137F
:1016B000BB600123FB603B1D19464FF0904004F0D6
:1016C000A1FA00220021062003F00DFE062003F0FF
:1016D00024FE00220021072003F005FE072003F06E
:1016E0001CFE00220021092003F0FDFD092003F06B
:1016F00014FE00220021282003F0F5FD282003F02D
:101700000CFE00BF1837BD4680BD00BF0004004876
:101710000010004880B483B000AF7860064BD3F867
:10172000802005497B681343C1F8803000BF0C3727
:10173000BD465DF8047B70470008005880B483B054
:1017400000AF7860054B1A6804497B6813430B604F
:1017500000BF0C37BD465DF8047B70470008005899
:1017600080B483B000AF0D4B9B6A9BB27B600B4B88
:101770009B6A9BB23B6005E03B687B60074B9B6AC2
:101780009BB23B607A683B689A42F5D13B68184649
:101790000C37BD465DF8047B704700BF0028004051
:1017A00080B485B000AF03460A46FB711346BB7197
:1017B000BA791D4913465B001344DB000B44153313
:1017C0001B78FB73FB7B062B09D0FA7B164913466B
:1017D0005B001344DB000B441433FA791A70FA7976
:1017E000114913465B001344DB000B441533FA7BAD
:1017F0001A70FA790C4913465B001344DB000B4462
:101800001433BA791A70BA79074913465B00134446
:10181000DB000B441533FA791A7000BF1437BD464C
:101820005DF8047B704700BF2005002080B485B0C0
:1018300000AF03460A46FB711346BB71294B1B7868
:10184000DBB2BA799A4232D0BA79274913465B00A3
:101850001344DB000B4414331B78FB73FA7B2249DF
:1018600013465B001344DB000B441533FA791A70FE
:10187000FA791D4913465B001344DB000B44153312
:10188000BA791A70FA79184913465B001344DB00E1
:101890000B441433FA7B1A70BA79134913465B0070
:1018A0001344DB000B441433FA791A7014E0FA790C
:1018B0000D4913465B001344DB000B441533BA7922
:1018C0001A70BA79084913465B001344DB000B44D5
:1018D0001433FA791A7000BF1437BD465DF8047BE3
:1018E000704700BFB00500202005002080B584B0FF
:1018F00000AF0346FB714E4B1B78DBB2062B18D1B1
:101900004B4B1B78DAB24B4B1A70494AFB79137078
:10191000FA79494913465B001344DB000B44153345
:1019200006221A70454B4FF0FF321A600023FB81EC
:1019300078E000F009F90346FB81FA793E49134645
:101940005B001344DB000B4408331968FB89FA7908
:101950001944394813465B001344DB000344083341
:101960001960FA79344913465B001344DB000B44D9
:1019700008331B68BB602E4B1B78DBB219462E4A1E
:101980000B465B000B44DB00134408331B68BA684A
:101990009A4237D3264B1B787B737A7B26491346B2
:1019A0005B001344DB000B4415331B783B7313E0DF
:1019B0007A7B214913465B001344DB000B4415334B
:1019C0001B787B737A7B1C4913465B001344DB0056
:1019D0000B4415331B783B733B7B062B0BD03A7BB8
:1019E000154913465B001344DB000B4408331B68A6
:1019F000BA689A42DCD27A7BFB7911461846FFF727
:101A0000CFFE0FE00A4B1B78DAB2FB79114618467D
:101A1000FFF70CFF064B1B78DAB2064B1A70044A2C
:101A2000FB791370FB8918461037BD4680BD00BF97
:101A3000B0050020B105002020050020B4050020DD
:101A400080B485B000AF03460A46FB711346BB71F4
:101A5000394B1B78DBB2FA799A4211D1364B1B789D
:101A6000DAB2364B1A70FA79354913465B001344E3
:101A7000DB000B4415331B78DAB22F4B1A703EE0B3
:101A8000FA792F4913465B001344DB000B441433EF
:101A90001B78FB73FA792A4913465B001344DB0079
:101AA0000B4415331B78BB73F979FA7B24480B463A
:101AB0005B000B44DB00034415331B78D8B220498C
:101AC00013465B001344DB000B44153302461A70C7
:101AD000BB7B062B13D0F979BA7B19480B465B0008
:101AE0000B44DB00034414331B78D8B2144913466B
:101AF0005B001344DB000B44143302461A70FA797E
:101B00000F4913465B001344DB000B440C330122E6
:101B10001A70094B1B78DBB2062B07D1BB79002B5F
:101B200004D1084B4FF0FF321A6000BF00BF1437DA
:101B3000BD465DF8047B7047B0050020B10500206C
:101B400020050020B405002080B582B000AF1A4BFC
:101B50001B68B3F1FF3F26D0FFF702FE7860164BFB
:101B60001B687A689A4205D8134B1A687B68D31AA7
:101B70007B600AE0114B1B881A467B68D31A3B60D6
:101B80000D4B1B683A6813447B600D4B1B781A465B
:101B90007B6802FB03F37B600A4B1B781A467B6869
:101BA000D3407B6001E000237B607B689BB21846DA
:101BB0000837BD4680BD00BFB4050020BC0500202D
:101BC000BA050020B905002080B582B000AF0346F9
:101BD000FB80FB88002B08D1FFF7C2FD0346214A9A
:101BE0001360032003F0C1FB39E0FB88012B03D80D
:101BF0001D4B1B78012B02D0FB88013BFB8000BFF3
:101C00001A4B1B68DB6803F00403002BF8D0174B5A
:101C10001B68DB68DAB2154B1B6862F49062DA600D
:101C2000134B4FF40022DA60032003F0ACFB114B9E
:101C30005B691B0C1B04FA880E4913434B61FFF7C9
:101C40008FFD0346074A1360084B1B689A68074BD1
:101C50001B6842F480629A60AFF3008000BF0837CF
:101C6000BD4680BDB4050020B9050020280700202E
:101C7000000800580028004080B584B000AF454BF4
:101C80009B6803F48063B3F5806F07D100BF424BBC
:101C90001B68DB6803F00403002BF8D13E4B1B6884
:101CA0009A683D4B1B6822F480629A603B4B1B781C
:101CB000FB73FA7B3A4913465B001344DB000B4489
:101CC00008331B68BB60FFF73FFF0346FB80FB88C0
:101CD000BA689A4205D20023BB81324B01221A70A6
:101CE0004DE0FB88304A128892B213441A46BB6812
:101CF000934206D92C4B1B88BB812A4B00221A70B9
:101D00003DE0BB689AB2FB88D31ABB81254B012208
:101D10001A7034E0FA7B224913465B001344DB005F
:101D20000B4408331A68FB889A420AD2FA7B1C4992
:101D300013465B001344DB000B44083300221A6097
:101D400013E0FA7B164913465B001344DB000B4497
:101D500008331968FB88FA7BC91A114813465B00DF
:101D60001344DB00034408331960FA7B0C49134623
:101D70005B001344DB000B4415331B78FB73FB7BC8
:101D8000062BC7D1BB891846FFF71EFF00BF1037CF
:101D9000BD4680BD0028004028070020B005002077
:101DA00020050020B8050020BE05002080B58AB0BF
:101DB00000AFEFF310837B617B697B6272B600BF7B
:101DC000594B1B68CA225A62574B1B6853225A62EE
:101DD000554B1B689A68544B1B6822F480629A60CA
:101DE000524B1B7887F8233097F82320504913462D
:101DF0005B001344DB000B440C331B78DBB2022B7B
:101E00006ED197F823204A4913465B001344DB0048
:101E10000B441B68FB6197F82320454913465B0080
:101E20001344DB000B4410331B68BB61414B1B7830
:101E3000DBB2002B4CD097F823203D4913465B00C2
:101E40001344DB000B440D331B78DBB2012B24D190
:101E500097F8233001211846FFF7F2FD7B6A3B61BA
:101E60003B6983F3108800BF97F82320304913465D
:101E70005B001344DB000B4404331A6897F82330EB
:101E80001146184600F0B8F9274B1B68CA225A625F
:101E9000254B1B6853225A6212E07B6AFB60FB6889
:101EA00083F3108800BF97F82330184600F020F91C
:101EB0001D4B1B68CA225A621B4B1B6853225A6275
:101EC00097F82330FA691946B86900F01BFA22E046
:101ED000FFF7D2FE7B6ABB60BB6883F310881AE011
:101EE00000BF114B1B68DB6803F00403002BF8D024
:101EF0000D4B1B68DB68DAB20B4B1B6862F4906217
:101F0000DA600D4B4FF40022DA607B6A7B607B68FD
:101F100083F3108800BF044B1B68FF225A6200BF86
:101F20002837BD4680BD00BF28070020B00500202F
:101F300020050020B80500200008005880B588B0B2
:101F400000AF03463960FB715E4B1B68CA225A62C0
:101F50005C4B1B6853225A625B4B9B685A4A43F0A6
:101F600020039360584B9B68DBB203F00703DBB29E
:101F7000C3F10403DAB2554B1A70534B1B6903F4D7
:101F8000FE034FF4FE023A613A6992FAA2F2FA6055
:101F9000FA687A617A69002A01D1202203E07A691D
:101FA000B2FA82F2D2B2D340DBB20133DAB2484B9A
:101FB0001A70454B1B699BB2C3F30E039BB20133EE
:101FC0009AB2444B1A80434B1B88013B404A12781B
:101FD00002FB03F3A3F5A0733C4A1278D340BB6124
:101FE000BB694FF6FE72934204D93B4B4FF6FF722A
:101FF0001A8003E0BB699AB2374B1A804FF4002075
:10200000FFF79CFB4FF40020FFF784FBFB79002BCC
:102010003DD1324B01221A70314B4FF0FF321A6022
:102020000023FB770CE0FA7F2E4913465B00134434
:10203000DB000B440C3300221A70FB7F0133FB776B
:10204000FB7F052BEFD9284B06221A701D4B1B680E
:102050009A681C4B1B6822F480629A60194B1B68BB
:10206000DB68DAB2174B1B6862F49062DA601F4BD0
:102070004FF40022DA60032003F085F9114B1B684E
:102080009A68104B1B6842F480429A6009E00D4B3D
:102090001B68DB6803F48063002B02D0032003F08D
:1020A00064F9084B1B68FF225A62002203210320B7
:1020B00003F019F9032003F030F900BF2037BD46C3
:1020C00080BD00BF2807002000280040B90500207F
:1020D000BA050020BC050020BE050020B805002080
:1020E000B405002020050020B0050020000800589D
:1020F00080B586B000AF0346FB71EFF31083FB6041
:10210000FB687B6172B600BF032003F014F9344B07
:102110001B68CA225A62324B1B6853225A62FA79F0
:10212000304913465B001344DB000B440C331B782F
:10213000DBB2022B42D1FB7900211846FFF780FC6D
:10214000294B1B78FB74FB7C062B2FD1274B9B68FC
:1021500003F48063B3F5806F07D100BF204B1B6889
:10216000DB6803F00403002BF8D11D4B1B689A6851
:102170001B4B1B6822F480629A6000BF184B1B68DF
:10218000DB6803F00403002BF8D0154B1B68DB68F9
:10219000DAB2134B1B6862F49062DA60144B4FF4AE
:1021A0000022DA60032003F0EEF807E0114B1B7801
:1021B000DBB2FA7C9A4201D0FFF75EFD084B1B6848
:1021C000FF225A62032003F0A8F87B69BB60BB685A
:1021D00083F3108800BF00BF1837BD4680BD00BF25
:1021E0002807002020050020B0050020002800401E
:1021F00000080058B105002080B586B000AF034646
:102200003960FB71FA793B4913465B001344DB00EC
:102210000B440C331B78DBB2022B03D1FB7918463D
:10222000FFF766FFEFF31083FB60FB687B6172B61C
:1022300000BF032003F07FF82F4B1B68CA225A62AD
:102240002D4B1B6853225A62FA792A4913465B00C8
:102250001344DB000B440C3302221A70FA7925492F
:1022600013465B001344DB000B4408333A681A60E2
:10227000FA79204913465B001344DB000B44043316
:102280003A681A60FB791846FFF730FB03467B82F9
:102290001A4B1B787B741A4B1B78DBB27A7C9A4200
:1022A00002D0FFF7E9FC13E0FA79124913465B000C
:1022B0001344DB000B44083319687B8AFA79C91A86
:1022C0000C4813465B001344DB00034408331960D9
:1022D000094B1B68FF225A62032003F01EF87B693A
:1022E000BB60BB6883F3108800BF00BF1837BD46D2
:1022F00080BD00BF2005002028070020B005002079
:10230000B105002080B584B000AFF8600B467A605C
:10231000FB727B68984700BF1037BD4680BD80B414
:1023200085B000AF78604FF0B0431A6D4FF0B04108
:102330007B6813430B654FF0B0431A6D7B68134005
:10234000FB60FB6800BF1437BD465DF8047B704737
:1023500080B500AF064B074A1A60054803F026FF18
:102360000346002B01D000F0E9FA00BF80BD00BF9A
:10237000C0050020000C005880B582B000AF786026
:102380007B681B680D4A934213D14FF48010FFF70E
:10239000C6FF002200212C2002F0A5FF2C2002F015
:1023A000BCFF002200212D2002F09DFF2D2002F015
:1023B000B4FF00BF0837BD4680BD00BF000C005809
:1023C00080B500AF234B1B78DBB2002B40D0214BF4
:1023D00000221A700B222049204841F032FE0B22C5
:1023E0001F49204841F02DFE1F4BD3ED007A1F4BB3
:1023F00093ED007A1E4BD3ED006A1E4B93ED006AFD
:102400001D48F0EE461AB0EE661AF0EE470AB0EE3E
:10241000670A01F038FD184BD3ED007AB2EE047A6A
:1024200067EE877A144BC3ED007A134B1B6818468E
:10243000FEF762F802460B461049114841F0A4FC31
:10244000182205490F4808F0E3FC0F4B01221A70CF
:1024500000BF80BD220600200406002024060020C4
:102460001006002030060020300A0020AC060020B4
:10247000A8060020340A0020380A00202C6804082E
:10248000B0060020440A0020D506002098B500AF11
:1024900002F05CFDFEF770FE00F044F900F0AAF9CE
:1024A000FFF756FF4FF47A70FEF7A1FFFFF798F899
:1024B000FFF75BF801F0FEF8FFF708F801F000FC09
:1024C00000F022FB02F032F900F030FE0DF074FA59
:1024D00000F0FAFD7C4B01229A707B4B01225A706E
:1024E000794B1922DA70794B0C221A70774B002243
:1024F0005A7000227549764806F024FA0022724983
:10250000734806F01CFB6420FEF771FF00F088FBA7
:102510000346002B01D000F011FA00F037FD03460E
:10252000002B01D000F00AFA6A4A4FF0104310461F
:10253000194664231A4641F084FD012002F008FB8D
:1025400027F09EFF492002F0C1FB63496348DFED9D
:10255000641A9FED641ADFED640A9FED640A01F0CE
:1025600060FC5E4BD3ED007A5B4B93ED007A6048E4
:10257000F0EE471A9FED5F1ADFED5F0AB0EE670AD3
:1025800001F081FC554BD3ED007A534B93ED007A6B
:102590005748F0EE471A9FED591ADFED590AB0EE91
:1025A000670A01F070FCDFED572A9FED4E2ADFED40
:1025B0004C1A9FED4C1ADFED4C0A9FED4C0A01F0CE
:1025C000ABFCDFED4C2A9FED502ADFED451A9FED65
:1025D000451ADFED450A9FED450A01F09DFC02F02A
:1025E00023FD0346494A136000F07CFE02F01CFD07
:1025F0000346474A136002F017FD0346454A13603D
:10260000FEF7C8FD00F032FE00F0B4FE00F0E2FE7E
:102610003F4B1B6803F57A7402F006FD03469C42AB
:1026200023D202F001FD0346394A13600CF040FD4D
:1026300000222649264806F024FA0022224924488E
:1026400006F006FB01F010FD334B1B78092B0CD86C
:10265000314B1B780133DAB22F4B1A702E4B1B789B
:10266000062B02D92D4800F06BFEFFF7A9FE274B81
:102670001B6803F1640402F0D7FC03469C4206D2B7
:1026800027F0FEFE02F0D0FC0346204A13604FF410
:102690000071234800F043F90346002B0ED04FF49D
:1026A00000711F4800F029F900220849084806F087
:1026B00049F900220449064806F041FAFEF7BCFE3B
:1026C0000DF082F99EE700BFBC060020C006002086
:1026D0002807002044060020340A0020300A002089
:1026E0008C1B0742F7759142C01B0742DD75914272
:1026F000380A0020CC1B0742F97591427F1B074224
:10270000D27591420F1C0742FD75914200060020D0
:102710003C06002040060020DC0600203468040847
:10272000D806002080B59AB000AF07F120034822F8
:102730000021184641F08DFB3B1D00221A605A60B3
:102740009A60DA601A615A619A61294B1B6823F416
:10275000C063274A43F400731360254B1B6803F4DE
:10276000C0633B603B680B233B624FF480337B626A
:102770004FF48073FB6240233B6305237B6302239A
:10278000FB6403233B6530237B651023BB654FF45B
:102790000033FB654FF000537B664FF000733B66E0
:1027A00007F12003184604F0EDFD0346002B01D08D
:1027B00000F0C4F86F237B600323BB600023FB6041
:1027C00000233B6100237B618023BB610023FB610D
:1027D0003B1D0321184605F049F90346002B01D0A3
:1027E00000F0ACF805F02EFB00BF6837BD4680BD99
:1027F0000004005880B594B000AF3B465022002141
:10280000184641F026FB4FF440533B604FF44043E1
:102810007B640223BB641023FB643B46184605F02F
:1028200082FD0346002B01D000F088F800BF50372E
:10283000BD4680BD80B483B000AF78607B681B6804
:10284000054A934202D1054B01221A7000BF0C3792
:10285000BD465DF8047B7047003801402206002029
:1028600080B584B000AF0346FB8002F0DDFBF8606A
:10287000144B1B68C833FA689A421ED9114AFB6888
:102880001360FB88012B03D10F4B01221A7014E057
:10289000FB88022B03D10D4B01221A700DE0FB883F
:1028A000082B03D10A4B01221A7006E0FB88B3F50E
:1028B000004F02D1074B01221A7000BF1037BD46EE
:1028C00080BD00BFE0060020FC050020FD050020C3
:1028D000FE050020FF05002080B483B000AF7860C3
:1028E00039607B681A683B681A437B681A6000BFCE
:1028F0000C37BD465DF8047B704780B483B000AFF1
:10290000786039607B681A683B68DB431A407B68F3
:102910001A6000BF0C37BD465DF8047B704780B479
:1029200083B000AF786039607B681A683B681340F9
:1029300018460C37BD465DF8047B704780B400AF85
:1029400072B600BF00BFFDE780B483B000AF78600F
:10295000044A7B681A607B6818460C37BD465DF8F0
:10296000047B7047508D040880B582B000AF78605A
:102970007868FFF7E9FF042178683FF01CFC7B686A
:1029800018460837BD4680BD80B483B000AF78607C
:1029900000BF0C37BD465DF8047B704780B483B040
:1029A00000AF786000BF0C37BD465DF8047B704710
:1029B00080B483B000AF786039601B4B1B78002B6C
:1029C00007D0194B00221A703B6800221A700123AD
:1029D00024E0164B1B78002B07D0144B00221A70F2
:1029E0003B6801221A70012318E0114B1B78002B61
:1029F00007D00F4B00221A703B6802221A70012385
:102A00000CE00C4B1B78002B07D00A4B00221A70ED
:102A10003B6803221A70012300E0002318460C379C
:102A2000BD465DF8047B7047FC050020FD050020D5
:102A3000FE050020FF05002080B582B000AF786061
:102A4000054A7B681A607B681846FFF77DFF7B6844
:102A500018460837BD4680BD348D040880B582B065
:102A600000AF78607868FFF7E7FF082178683FF0EB
:102A7000A2FB7B6818460837BD4680BD80B485B090
:102A800000AF78604FF0B043DA6C4FF0B0417B6834
:102A90001343CB644FF0B043DA6C7B681340FB60A8
:102AA000FB6800BF1437BD465DF8047B704780B4F7
:102AB00085B000AF78604FF0B0431A6D4FF0B04171
:102AC0007B6813430B654FF0B0431A6D7B6813406E
:102AD000FB60FB6800BF1437BD465DF8047B7047A0
:102AE00080B483B000AF78604FF0B0431A6D7B685C
:102AF000DB434FF0B04113400B6500BF0C37BD46C0
:102B00005DF8047B7047000080B500AF0F4B104AA2
:102B10001A600E4B01225A600C4B04229A600B4B38
:102B20001022DA60094B17221A61084B00225A6101
:102B3000064B00229A61054803F0DCFB0346002B9C
:102B400001D0FFF7FBFE00BF80BD00BFE406002000
:102B5000001000A080B588B000AF786007F10C03CA
:102B600000221A605A609A60DA601A617B681B68FA
:102B7000194A93422BD14FF48070FFF798FF02203F
:102B8000FFF77CFF0120FFF779FF4FF44073FB60F4
:102B900002233B6100237B610323BB610A23FB61AA
:102BA00007F10C0319460D4803F02CF8CC23FB6009
:102BB00002233B6100237B610323BB610A23FB618A
:102BC00007F10C0319464FF0904003F01BF800BFCB
:102BD0002037BD4680BD00BF001000A000040048A3
:102BE00080B582B000AF78607B681B680A4A934268
:102BF0000DD14FF48070FFF773FF4FF44071074819
:102C000003F070F9CC214FF0904003F06BF900BF56
:102C10000837BD4680BD00BF001000A0000400487A
:102C200080B500AF1B4B1C4A1A601A4803F0D8FB52
:102C30000346002B01D001232AE0FFF765FF00F0D7
:102C4000E1F90346002B01D0012321E00120FEF72A
:102C5000CEFB00F023F80346002B01D0012317E040
:102C60000120FEF7C4FB00F063F80346002B01D0FF
:102C700001230DE00120FEF7BAFB00F0B7F8034690
:102C8000002B01D0012303E06420FEF7B0FB0023FA
:102C9000184680BDE4060020001000A080B594B066
:102CA00000AF07F1180334220021184641F0D1F893
:102CB0003B4600221A605A609A60DA601A615A61D3
:102CC0004FF480733B630523BB6100237B630023C8
:102CD000BB634FF08073FB630023FB6200237B64C4
:102CE0000023BB6400233B6001237B6000233B6126
:102CF0000123FB601023BB604FF480037B613A46E5
:102D000007F118014FF0FF33084803F01AFD03469E
:102D100087F84F3097F84F30002B02D097F84F309C
:102D200000E0002318465037BD4680BDE406002071
:102D300080B594B000AF07F1180334220021184683
:102D400041F087F83B4600221A605A609A60DA60C8
:102D50001A615A614FF480733B630623BB61002301
:102D60007B630023BB630023FB630023FB62002320
:102D70007B640023BB6407F118030A2219461A4832
:102D800003F052FB034687F84F3097F84F30002B83
:102D900002D097F84F3023E002233B6002237B6090
:102DA00000233B610123FB601023BB604FF48003D1
:102DB0007B610523BB614FF08073FB633A4607F1EB
:102DC00018010A23084803F0BCFC034687F84F307B
:102DD00097F84F30002B02D097F84F3000E00023D7
:102DE00018465037BD4680BDE406002080B590B03F
:102DF00000AF07F1080334220021184641F029F8FA
:102E00004FF480733B623523BB6000237B62002359
:102E1000BB624FF08073FB620023FB6100237B6386
:102E20000023BB6301233B6307F108030A22194611
:102E3000554803F0F9FA034687F83F3097F83F30DA
:102E4000002B02D097F83F3099E0FB1D0A2219466B
:102E50004D4803F0D9FB034687F83F3097F83F30E1
:102E6000002B02D097F83F3089E00023FB6250230B
:102E7000BB6007F108030A221946434803F0D4FA5D
:102E80000346002B02D097F83F3078E04FF0807374
:102E9000FB623123BB60FB7943F00203DBB2FB71C1
:102EA00007F108030A221946374803F0BDFA034622
:102EB000002B02D097F83F3061E0FB1D0A22194633
:102EC000314803F00FFB0346002B02D097F83F3048
:102ED00055E04FF480733B621523BB6000237B6297
:102EE0000023BB624FF08073FB620023FB61002371
:102EF0007B630023BB6301233B6307F108030A22C2
:102F00001946214803F090FA034687F83F3097F8B6
:102F10003F30002B02D097F83F3030E0FB1D0A22F3
:102F20001946194803F070FB034687F83F3097F8BD
:102F30003F30002B02D097F83F3020E01123BB60D8
:102F4000FB7923F06003DBB2FB7107F108030A226F
:102F500019460D4803F068FA0346002B02D097F893
:102F60003F300CE0FB1D0A221946074803F0BAFA6D
:102F70000346002B02D097F83F3000E000231846AC
:102F80004037BD4680BD00BFE406002080B590B04C
:102F900000AF4FF480737B62EB23FB604FF4005370
:102FA000BB614FF44063BB6200233B614FF440437D
:102FB000FB62FF237B610123FB610023BB630023D2
:102FC000FB634FF040733B6300237B6304233B624E
:102FD0000023BB6000237B603A1D07F10C031946F8
:102FE000074803F025FC0346002B01D0012303E032
:102FF0006420FEF7FCF9002318464037BD4680BD2B
:10300000E406002080B590B000AF3B1D34220021C3
:10301000184640F01EFF0023FB634FF48073FB61F2
:1030200066237B6000233B6200237B620023BB623C
:103030000023BB6100233B6300237B633B1D0A220B
:1030400019461F4803F0F0F9034687F83B3097F81C
:103050003B30002B02D097F83B302CE04FF48073CC
:10306000FB6199237B6000233B6200237B6200238A
:10307000BB620023BB6100233B6300237B633B1DDA
:103080000A2219460E4803F0CFF9034687F83B3071
:1030900097F83B30002B02D097F83B300BE0002331
:1030A000FB6303E000BFFB6B0133FB63FB6B054A73
:1030B0009342F7D9002318464037BD4680BD00BF74
:1030C000E40600201FA1070080B400AF00BFBD468A
:1030D0005DF8047B704780B400AF4FF0B043D3F885
:1030E00090304FF0B04243F40043C2F8903000BF3C
:1030F000BD465DF8047B704780B485B000AF786052
:103100004FF0B0439A6D4FF0B0417B6813438B652D
:103110004FF0B0439A6D7B681340FB60FB6800BFC3
:103120001437BD465DF8047B7047000080B586B05B
:1031300000AF3B1D00221A605A609A60DA601A6183
:1031400000233B602C4B2D4A1A602B4B00225A6007
:10315000294B0F229A60284B47F6FF72DA60264B04
:1031600000221A61244B00229A61234B0022DA616B
:10317000214B00225A61204805F05CFB0346002BDE
:1031800001D0FFF7DBFB00233B7100237B710023A1
:10319000BB710023BB6000233B6100237B613B1DAF
:1031A00000221946144805F0CDFB0346002B01D040
:1031B000FFF7C4FB01233B7001237B700123BB702D
:1031C0000023FB703B46002219460B4805F0B7FC74
:1031D0000346002B01D0FFF7B1FB00220021064877
:1031E00005F046FE0346002B01D0FFF7A7FB00BF0A
:1031F0001837BD4680BD00BF2807002000280040CA
:1032000080B596B000AF786007F108035022002126
:10321000184640F01EFE7B681B68134A93421FD17C
:1032200003F04AF84FF40063BB604FF40073BB64D3
:1032300007F10803184605F076F80346002B01D085
:10324000FFF77CFBFFF747FF4FF48060FFF754FF69
:1032500000220021032002F046F8032002F05DF86E
:1032600000BF5837BD4680BD0028004080B582B001
:1032700000AF00F04FF90346002B2AD000F056F9BA
:1032800078607868FCF7CCFF0346FB70134B1B7823
:10329000DBB29B010133124A1344FA78796818466D
:1032A00040F0CFFE0D4B1B78DBB20D4A9B0113445F
:1032B000FA781A70094B1B78DBB20133DAB2074B8C
:1032C0001A70064B1B78DBB2032B02D9034B00228A
:1032D0001A7000BF0837BD4680BD00BF100900202E
:1032E0001008002080B500AF80221249124807F074
:1032F0008FFD124B1B68114A23F0010313600F4B23
:103300005B680E4A23F07F4353600C4B5B680B4AAB
:1033100043F020635360094B1B68084A43F4804321
:103320001360064B1B68054A43F00103136000BF9E
:1033300080BD00BF4C070020440A00200038014037
:1033400080B582B000AF78607B68002B01D101238B
:103350000AE07868FCF764FF03469BB21A46796876
:10336000034807F0D5FC002318460837BD4680BD4A
:10337000440A002080B582B000AF00F09FF80346F9
:10338000FB71104B1B78012B14D1FB79012B03D15E
:103390000D48FFF7D5FF0FE0FB79032B03D10B4856
:1033A000FFF7CEFF08E0FB79042B05D10848FFF7B3
:1033B000C7FF01E000BF00E000BF00BF0837BD4607
:1033C00080BD00BF0C000020648D04086C8D0408D3
:1033D000748D040880B500AF314B1B78DAB2314BE5
:1033E0001B78DBB29A4258D02D4B1B78DBB29B0185
:1033F00001332D4A98182A4B1B78DBB22A4A9B01CD
:1034000013441B781A46294940F02BFD0346002B34
:1034100034D0234B1B78DBB29B010133224A134487
:1034200004222349184640F01CFD0346002B09D115
:103430001B4B1B78DBB29B011B4A1344184600F060
:1034400085F81BE0164B1B78DBB29B010133164A53
:10345000134404221749184640F003FD0346002B8D
:103460000CD10F4B1B78DBB29B010F4A134418465B
:1034700000F0D8F803461A460F4B1A70084B1B7819
:10348000DBB20133DAB2064B1A70054B1B78DBB2A4
:10349000032B02D9024B00221A7000BF80BD00BF6F
:1034A00011090020100900201008002044680408B9
:1034B00060680408686804081909002080B400AF37
:1034C000114B1B78DBB2002B04D00F4B00221A707B
:1034D000012314E00D4B1B78DBB2002B04D00B4B07
:1034E00000221A7003230AE0094B1B78DBB2002B81
:1034F00004D0074B00221A70042300E00023184672
:10350000BD465DF8047B70470D0800200E080020C2
:103510000F08002080B400AF034B1B78DBB21846C5
:10352000BD465DF8047B70470C08002080B400AFF6
:10353000044B00221A70044B1846BD465DF8047B0C
:10354000704700BF0C080020CC07002080B586B073
:1035500000AF78600023BB7500233B617B681B785C
:10356000FB730023FB7515E0FB7D04337A6813447D
:103570001B782C2B0BD1BB7D5A1CBA751946FB7DD1
:103580000433DAB201F118033B4403F8102CFB7D3D
:103590000133FB75FA7DFB7B9A42E5D3BB7D002BA3
:1035A00037D03B7A033BFB733B7A1A467B68134464
:1035B000FA7B1946386940F066FC38693EF052FFE4
:1035C00053EC102B10461946FDF7E6FA0346134A52
:1035D00013607A7A3B7AD31AFB733B7A1A467B687C
:1035E0001344FA7B1946386940F04DFC38693EF0C7
:1035F00039FF53EC102B10461946FDF7CDFA034660
:10360000064A13607B7A01337A6813441A78044BB4
:103610001A7000BF1837BD4680BD00BF14090020D6
:103620001809002080B584B000AF78607B6805334E
:103630001B889BB2BB8107F10C0318463EF015FFB7
:103640000346FB73FB7B18461037BD4680BD80B434
:1036500085B000AF78604FF0B043DA6C4FF0B04106
:103660007B681343CB644FF0B043DA6C7B68134044
:10367000FB60FB6800BF1437BD465DF8047B7047F4
:1036800080B485B000AF78604FF0B0431A6E4FF051
:10369000B0417B6813430B664FF0B0431A6E7B68F2
:1036A0001340FB60FB6800BF1437BD465DF8047B28
:1036B0007047000080B500AF1B4B1C4A1A601A4BC4
:1036C0004FF482725A60184B00229A60164B4FF4E6
:1036D000E062DA60144B00221A61134B00225A6137
:1036E000114B4FF400729A610F4B0022DA610E4BBE
:1036F00000221A620C4B00225A620B4B00229A6283
:10370000094B0722DA62084B00221A63064B00229B
:103710005A63054805F078FC0346002B01D0FFF7FB
:103720000DF900BF80BD00BF1C0900200030014022
:1037300080B588B000AF786007F10C0300221A60F2
:103740005A609A60DA601A617B681B68314A93425A
:103750005BD14FF48050FFF793FF0120FFF777FF15
:103760000220FFF774FF2023FB6002233B6100234C
:103770007B610323BB610523FB6107F10C03194641
:103780004FF0904002F03EFA3023FB6002233B6191
:1037900000237B610323BB610523FB6107F10C035D
:1037A00019461D4802F02EFA1C4B1D4A1A601B4B8D
:1037B00007225A60194B10229A60184B0022DA60D7
:1037C000164B80221A61154B00225A61134B0022BE
:1037D0009A61124B0022DA61104B00221A620F48E4
:1037E00001F0D2FE0346002B01D0FFF7A7F87B685B
:1037F0000A4A5A65094A7B68936200220021222006
:1038000001F071FD222001F088FD00BF2037BD4688
:1038100080BD00BF00300140000400488009002046
:103820000800024080B485B000AF78604FF0B0432C
:103830001A6D4FF0B0417B6813430B654FF0B043F6
:103840001A6D7B681340FB60FB6800BF1437BD46F0
:103850005DF8047B704780B500AF4FF40020FFF7A0
:10386000E1FF002200212E2001F03DFD2E2001F07D
:1038700054FD00BF80BD80B500AF04F0E9FA00BF81
:10388000FDE780B400AF00BFFDE780B400AF00BF2C
:10389000FDE780B400AF00BFFDE780B400AF00BF1C
:1038A000FDE780B400AF00BFBD465DF8047B704704
:1038B00080B400AF00BFBD465DF8047B704780B4A4
:1038C00000AF00BFBD465DF8047B704780B500AF18
:1038D00001F096FB00BF80BD80B500AFFEF766FA31
:1038E00000BF80BD80B500AF012002F023FC00BF07
:1038F00080BD80B500AF022002F01CFC00BF80BD7F
:1039000080B500AF082002F015FC00BF80BD0000AC
:1039100080B500AF024802F018F800BF80BD00BFBC
:103920008009002080B500AF024802F00EF800BF09
:1039300080BD00BFD80A002080B500AF024802F069
:1039400004F800BF80BD00BF380B002080B500AF79
:10395000024805F061FE00BF80BD00BF1C090020C9
:1039600080B582B000AF204B1B68DB6903F40033E5
:10397000B3F5003F31D11C4B1B684FF400321A6283
:10398000194807F091FA184BD3F880301B685B6830
:103990009BB2C3F18003FB80FB88012B18D9FB8805
:1039A000023B124AD35C0D2B12D1FB88023BBB8039
:1039B000BB883F2B0CD8BB881A460C490C4840F0FA
:1039C00040FBBB880A4A0021D1540A4B01221A70DD
:1039D00080220649044807F01BFA034807F0FAFA68
:1039E00000BF0837BD4680BD440A00204C070020B8
:1039F000CC0700200C08002080B500AF4FF4004039
:103A000002F098FB00BF80BD80B500AF0BF01AFE3E
:103A100000BF80BD80B500AF0BF04AFE00BF80BD87
:103A200080B500AF02F09EFB00BF80BD80B400AF48
:103A300001231846BD465DF8047B704780B582B00F
:103A400000AF7860396040F0CFFA034616221A6062
:103A50004FF0FF3318460837BD4680BD80B582B0B1
:103A600000AF78604FF0FF317868FFF7E7FF00BFE5
:103A7000FDE780B586B000AFF860B9607A600023DA
:103A80007B610AE0AFF300800146BB685A1CBA6054
:103A9000CAB21A707B6901337B617A697B689A428A
:103AA000F0DB7B6818461837BD4680BD80B586B010
:103AB00000AFF860B9607A6000237B6109E0BB6801
:103AC0005A1CBA601B781846AFF300807B6901333B
:103AD0007B617A697B689A42F1DB7B68184618370C
:103AE000BD4680BD80B483B000AF78604FF0FF3337
:103AF00018460C37BD465DF8047B704780B483B030
:103B000000AF786039603B684FF400525A60002380
:103B100018460C37BD465DF8047B704780B483B00F
:103B200000AF7860012318460C37BD465DF8047B72
:103B3000704780B485B000AFF860B9607A60002348
:103B400018461437BD465DF8047B704780B586B0D3
:103B500000AF7860144A154BD31A7B617B693B61D7
:103B6000134B1B68002B02D1114B124A1A60104BE9
:103B70001A687B6813443A699A4207D240F034FAD3
:103B800003460C221A604FF0FF3309E0084B1B6814
:103B9000FB60074B1A687B681344054A1360FB6897
:103BA00018461837BD4680BD0000032000400000C5
:103BB000E0090020D051002080B400AF244BD3F89E
:103BC0008830234A43F47003C2F888304FF0B04382
:103BD0001B684FF0B04243F0010313604FF0B04355
:103BE0004FF4E0229A604FF0B0431A684FF0B041B2
:103BF000184B13400B604FF0B043D3F894304FF0A4
:103C0000B04223F00503C2F894304FF0B043D3F82C
:103C100098304FF0B04223F00103C2F898304FF0D3
:103C2000B0430D4ADA604FF0B0430B4A1A614FF0CF
:103C3000B0431B684FF0B04223F4802313604FF071
:103C4000B04300229A6100BFBD465DF8047B704717
:103C500000ED00E0FBFEF6FA0010042280B485B00F
:103C600000AF78604FF0B043DA6C4FF0B0417B6842
:103C70001343CB644FF0B043DA6C7B681340FB60B6
:103C8000FB6800BF1437BD465DF8047B704780B405
:103C900085B000AF78604FF0B0439A6D4FF0B041FF
:103CA0007B6813438B654FF0B0439A6D7B6813407C
:103CB000FB60FB6800BF1437BD465DF8047B7047AE
:103CC00080B58EB000AF07F1280300221A605A6059
:103CD0009A60DA6007F11C0300221A605A609A6049
:103CE0003B4600221A605A609A60DA601A615A6193
:103CF0009A612E4B4FF080421A602C4B4FF6FF1208
:103D00005A602A4B00229A60284BFA22DA60274B2D
:103D10004FF400721A61254B80229A61234805F006
:103D20007FFF0346002B01D0FEF708FE4FF48053BF
:103D3000BB6207F1280319461C4806F017FA034630
:103D4000002B01D0FEF7FAFD184805F0C0FF03462E
:103D5000002B01D0FEF7F2FD1023FB6100237B62F4
:103D600007F11C031946114806F074FE0346002BA8
:103D700001D0FEF7E3FD60233B6032237B6000232C
:103D8000BB6000233B613B4600221946074806F012
:103D9000D9F80346002B01D0FEF7D0FD034800F010
:103DA00017F800BF3837BD4680BD00BFE4090020CA
:103DB00080B582B000AF78607B681B68B3F1804F3C
:103DC00002D10120FFF763FF00BF0837BD4680BD69
:103DD00080B588B000AF786007F10C0300221A604C
:103DE0005A609A60DA601A617B681B68B3F1804F91
:103DF00013D10120FFF732FF0123FB6002233B6157
:103E000000237B610023BB610123FB6107F10C03ED
:103E100019464FF0904001F0F5FE00BF2037BD4637
:103E200080BD80B487B000AF87ED050AC7ED040AF6
:103E300087ED031AC7ED021A7860396097ED027AB0
:103E4000D7ED047A77EE676A97ED037AD7ED057AB6
:103E500037EE677AC6EE877A7B68C3ED007A7B68B7
:103E600093ED007AD7ED057A67EE277A97ED047A1D
:103E700077EE677A3B68C3ED007A00BF1C37BD461A
:103E80005DF8047B7047B0B588B000AF87ED050AD8
:103E9000C7ED040A87ED031AC7ED021A786097EDA3
:103EA000057AD7ED047A67EE277A97ED037A77EEF5
:103EB000677AC7ED077A97ED077AD7ED027A77EE42
:103EC000677A17EE900AFCF717FB04460D46D7ED0C
:103ED000057A67EEA77AB7EE007A77EE877A17EE63
:103EE000900AFCF709FB02460B4643EC102B3EF010
:103EF0008AF953EC102B20462946FCF77FFC02463A
:103F00000B4610461946FCF747FE02467B681A60CE
:103F100000BF2037BD46B0BD2DE9B04390B000AF23
:103F200087ED050AC7ED040A87ED031AC7ED021AEB
:103F300087ED012AC7ED002A97ED017AD7ED057AC2
:103F400077EE677A17EE900AFCF7D6FA02460B4630
:103F5000C7E90E2397ED007AD7ED047A77EE677AFA
:103F600017EE900AFCF7C8FA02460B46C7E90C2385
:103F700097ED037AD7ED057A77EE677A17EE900A18
:103F8000FCF7BAFA02460B46C7E90A2397ED027A14
:103F9000D7ED047A77EE677A17EE900AFCF7ACFA61
:103FA00002460B46C7E90823D7E90A23D7E90E01E1
:103FB000FCF7FAFA02460B4614461D46D7E90823D9
:103FC000D7E90C01FCF7F0FA02460B4620462946D9
:103FD000FCF734F902460B4614461D46D7E90A237E
:103FE000D7E90A01FCF7E0FA02460B4690469946EB
:103FF000D7E90823D7E90801FCF7D6FA02460B46B1
:1040000040464946FCF71AF902460B462046294627
:10401000FCF7F4FB02460B46C7E906234FF000020B
:104020004FF00003D7E90601FCF74EFD0346002BD5
:104030000FD04FF000020A4BD7E90601FCF726FD2E
:104040000346002B05D01021064802F059F8012341
:1040500000E0002318464037BD46BDE8B08300BFEE
:104060000000F03F0010004880B500AFB24B1B7855
:10407000DBB2002B10D1B14B1B78002B02D0AF4B21
:1040800000221A70AE4B1B78DBB2002B00F0F482DA
:10409000AB4B00221A70EFE2A84B1B78082B00F202
:1040A000E68201A252F823F0CD4000081B4100082F
:1040B0005941000857420008A5420008DB430008A8
:1040C0002944000827450008754500089D499E4879
:1040D000DFED9E1A9FED9E1ADFED9E0A9FED9E0A70
:1040E000FFF79FFE984BD3ED007A9C4B93ED007A3F
:1040F0009B4BD3ED006A934B93ED006A9948F0EE29
:10410000461AB0EE661AF0EE470AB0EE670AFFF7FD
:10411000BAFE8A4B01221A70AEE28B4BD3ED007AC5
:104120008E4B93ED007A8E4BD3ED006A854B93ED69
:10413000006A8C48F0EE461AB0EE661AF0EE470AB6
:10414000B0EE670AFFF79FFE864B1B68864A136036
:104150007A4B02221A708FE27B4BD3ED007A7F4BB1
:1041600093ED007A7E4BD3ED006A764B93ED006AB7
:104170007C48F0EE461AB0EE661AF0EE470AB0EE52
:10418000670AFFF780FE774BD3ED007AF5EEC07A31
:10419000F1EE10FA29DD744BD3ED007AF5EEC07A1A
:1041A000F1EE10FA21D56D4BD3ED007A6C4B93ED07
:1041B000007AF0EE472AB0EE672ADFED641A9FED31
:1041C000641ADFED640A9FED640AFFF7A5FE03465B
:1041D000002B3FD05A4B01221A70624B1B68624A77
:1041E0001360564B03221A7034E05E4BD3ED007A15
:1041F000F5EEC07AF1EE10FA00D43AE25A4BD3ED64
:10420000007AF5EEC07AF1EE10FA00DC31E2534BA1
:10421000D3ED007A524B93ED007AF0EE472AB0EEE0
:10422000672ADFED4A1A9FED4A1ADFED4A0A9FED31
:104230004A0AFFF771FE0346002B00F01A82404B3A
:1042400001221A70474B1B68474A13603B4B0322FD
:104250001A700EE20DE23B493B48DFED441A9FED38
:10426000441ADFED3C0A9FED430AFFF7DAFD364BB7
:10427000D3ED007A394B93ED007A394BD3ED006AD8
:10428000304B93ED006A3748F0EE461AB0EE661AEE
:10429000F0EE470AB0EE670AFFF7F5FD274B042260
:1042A0001A70E9E1284BD3ED007A2C4B93ED007A9C
:1042B0002B4BD3ED006A234B93ED006A2948F0EEB7
:1042C000461AB0EE661AF0EE470AB0EE670AFFF73C
:1042D000DAFD244BD3ED007AF5EEC07AF1EE10FA58
:1042E0004ADD214BD3ED007AF5EEC07AF1EE10FAFB
:1042F00042D51A4BD3ED007A194B93ED007AF0EECC
:10430000472AB0EE672ADFED191A9FED191ADFED83
:10431000110A9FED180AFFF7FFFD0346002B5CD042
:10432000074B02221A700F4B1B680F4A1360034B96
:1043300005221A7051E000BFD4060020410A002077
:10434000400A0020340A0020300A0020011E0742E3
:10435000107A91427E1D0742E8799142AC06002016
:10436000A8060020380A00203C0A00202F1D074222
:10437000A07A91426B7A9142C04BD3ED007AF5EE70
:10438000C07AF1EE10FA28D5BD4BD3ED007AF5EEE8
:10439000C07AF1EE10FA20DDBA4BD3ED007ABA4BB9
:1043A00093ED007AF0EE472AB0EE672ADFEDB71AF8
:1043B0009FEDB71ADFEDB70A9FEDB70AFFF7ACFD27
:1043C0000346002B09D0B54B02221A70AB4B1B6879
:1043D000AB4A1360B24B05221A70B249B248DFED06
:1043E000B31A9FEDB31ADFEDB30A9FEDB30AFFF7DF
:1043F00018FDAD4BD3ED007AA24B93ED007AA24BA2
:10440000D3ED006AA74B93ED006A9C48F0EE461A84
:10441000B0EE661AF0EE470AB0EE670AFFF733FD1A
:104420009F4B06221A7027E19F4BD3ED007A954BE4
:1044300093ED007A944BD3ED006A9A4B93ED006AAA
:104440008E48F0EE461AB0EE661AF0EE470AB0EE6D
:10445000670AFFF718FD894BD3ED007AF5EEC07AB5
:10446000F1EE10FA29DD864BD3ED007AF5EEC07A35
:10447000F1EE10FA21D5834BD3ED007A824B93ED08
:10448000007AF0EE472AB0EE672ADFED881A9FED3A
:10449000881ADFED880A9FED880AFFF73DFD034685
:1044A000002B3FD07D4B03221A70744B1B68744A5B
:1044B00013607B4B07221A7034E0704BD3ED007A07
:1044C000F5EEC07AF1EE10FA00D4D4E06C4BD3EDE7
:1044D000007AF5EEC07AF1EE10FA00DCCBE0694B21
:1044E000D3ED007A684B93ED007AF0EE472AB0EEF8
:1044F000672ADFED6E1A9FED6E1ADFED6E0A9FEDF3
:104500006E0AFFF709FD0346002B00F0B480634BF1
:1045100003221A70594B1B68594A1360604B0722DB
:104520001A70A8E0A7E05F495F48DFED601A9FEDD1
:10453000631ADFED630A9FED630AFFF772FC5A4BC3
:10454000D3ED007A4F4B93ED007A4F4BD3ED006AD9
:10455000544B93ED006A4948F0EE461AB0EE661AE5
:10456000F0EE470AB0EE670AFFF78DFC4C4B0822CD
:104570001A7081E04C4BD3ED007A424B93ED007AF8
:10458000414BD3ED006A474B93ED006A3B48F0EE98
:10459000461AB0EE661AF0EE470AB0EE670AFFF769
:1045A00072FC364BD3ED007AF5EEC07AF1EE10FADC
:1045B00029DD334BD3ED007AF5EEC07AF1EE10FA37
:1045C00021D5304BD3ED007A2F4B93ED007AF0EEEE
:1045D000472AB0EE672ADFED351A9FED381ADFED76
:1045E000380A9FED380AFFF797FC0346002B3ED0B0
:1045F0002A4B04221A70214B1B68214A1360284B56
:1046000000221A7033E01D4BD3ED007AF5EEC07A2C
:10461000F1EE10FA00D42AE0194BD3ED007AF5EE52
:10462000C07AF1EE10FA00DC21E0164BD3ED007AEF
:10463000154B93ED007AF0EE472AB0EE672ADFEDD6
:104640001B1A9FED1E1ADFED1E0A9FED1E0AFFF7D3
:1046500063FC0346002B0AD0104B04221A70074B50
:104660001B68074A13600E4B00221A70FFE700BF59
:1046700002E000BF00E000BF00BF80BD380A00209C
:104680003C0A0020AC060020A80600202F1D07428F
:10469000A07A91427E1D07426B7A9142400A002027
:1046A000410A0020340A0020300A00206A1E074216
:1046B000377A91421B1E07421D7A9142B47991428A
:1046C0009E1E07429A79914280B485B000AF78600F
:1046D0004FF0B043DA6C4FF0B0417B681343CB64CA
:1046E0004FF0B043DA6C7B681340FB60FB6800BF9F
:1046F0001437BD465DF8047B704780B485B000AFC9
:1047000078604FF0B0431A6E4FF0B0417B681343AE
:104710000B664FF0B0431A6E7B681340FB60FB687A
:1047200000BF1437BD465DF8047B704780B500AF0D
:10473000264B274A1A60254B4FF461325A60234BAF
:1047400000229A60214B0022DA60204B00221A617D
:104750001E4B0C225A611D4B00229A611B4B0022FA
:10476000DA611A4B00221A62184B00225A62174B68
:1047700030229A62154B4FF48052DA63134B4FF498
:1047800000521A64114806F0E5F90346002B01D0E7
:10479000FEF7D4F800210D4807F0DAFE0346002B9F
:1047A00001D0FEF7CBF80021084807F00FFF0346C1
:1047B000002B01D0FEF7C2F8044807F090FE034634
:1047C000002B01D0FEF7BAF800BF80BD440A0020DC
:1047D0000038014080B59CB000AF786007F15C0301
:1047E00000221A605A609A60DA601A6107F10C03BD
:1047F0005022002118463FF02CFB7B681B68434A7F
:1048000093427FD10123FB6000237B6207F10C03FD
:10481000184603F088FD0346002B01D0FEF78EF802
:104820004FF48040FFF769FF0220FFF74DFFC023E0
:10483000FB6502233B6600237B660023BB660723E0
:10484000FB6607F15C031946314801F0DBF9314B97
:10485000314A1A602F4B0E225A602E4B00229A606A
:104860002C4B0022DA602B4B80221A61294B00224C
:104870005A61284B00229A61264B2022DA61254B8F
:1048800000221A62234800F07FFE0346002B01D06D
:10489000FEF754F87B681F4AC3F880201D4A7B68E6
:1048A00093621E4B1E4A1A601C4B0F225A601B4B10
:1048B00010229A60194B0022DA60184B80221A618C
:1048C000164B00225A61154B00229A61134B0022AD
:1048D000DA61124B00221A62104800F055FE0346BE
:1048E000002B01D0FEF72AF87B680C4ADA670B4AE6
:1048F0007B68936200220021242000F0F4FC242035
:1049000000F00BFD00BF7037BD4680BD0038014090
:1049100000040048D80A00201C000240380B002088
:104920003000024080B400AF00BFBD465DF8047B9C
:104930007047000080B586B000AF396011461A4656
:104940000346FB710B46BB801346BB7100BF264B71
:104950001B78DBB2002BFAD0FFF7E4FFFB791A4695
:104960004FF400714FF0904001F0B2FBBB79002B87
:1049700016D0BB883A6813443B613B687B610BE00F
:104980007B691B68FB60FB685BBABB60BA687B69CC
:104990001A607B6904337B617A693B699A42EFD381
:1049A000BB88132B12D8104B00221A70BA884FF014
:1049B000FF3339680D4804F0CAFB0B4B01221A7013
:1049C000BB79002B0BD025F055FD08E0064B0022EB
:1049D0001A70BB881A463968044804F02FFD00BFDE
:1049E0001837BD4680BD00BF140000201C09002000
:1049F00080B582B000AF0346FB71F91D0023012290
:104A00000020FFF797FF00BF0837BD4680BD80B587
:104A100084B000AFF860B9601346FB71BB68002B2F
:104A200007D0BB689AB2FB79F9680120FFF782FFD3
:104A300000E000BF1037BD4680BD000080B500AF6C
:104A4000FFF770FF002210214FF0904001F040FB73
:104A50000120FCF7CCFC012210214FF0904001F026
:104A600037FB9620FCF7C3FC3A20FFF7C1FF00227A
:104A700001211048FFF7CBFFB020FFF7B9FF00225C
:104A800001210D48FFF7C3FFB020FFF7B1FF00225F
:104A900001210948FFF7BBFF1120FFF7A9FF78208C
:104AA000FCF7A5FC2920FFF7A3FF0520FCF79FFCDE
:104AB00000BF80BD706804087468040890B583B0B6
:104AC00000AF0446084611461A462346FB800346BB
:104AD000BB800B467B8013463B807B881A067B8815
:104AE0001B0203F47F031A43FB881B029BB2134390
:104AF000FA88120A92B21A43144B1A602A20FFF75E
:104B000077FF002204211148FFF781FF3B881A0636
:104B10003B881B0203F47F031A43BB881B029BB232
:104B20001343BA88120A92B21A43084B1A602B2018
:104B3000FFF75EFF002204210448FFF768FF2C20E6
:104B4000FFF756FF00BF0C37BD4690BDA00B0020FD
:104B500080B582B000AF0346FB7100224FF4807134
:104B60004FF0904001F0B4FA134B1A6812494FF617
:104B7000C77313400B60104B0F4A1B681360002271
:104B800004210E4801F0A4FA0D4B1A680C494FF6A7
:104B9000C77313400B600A4B1B68094A43F0380384
:104BA0001360FFF74BFFFB79184600F00BF800BFCE
:104BB0000837BD4680BD00BF0030014000040048FA
:104BC0000038004080B582B000AF0346FB71FB792E
:104BD000032B37D801A252F823F000BFED4B000899
:104BE000034C0008194C00082F4C00081D4B88226C
:104BF0001A701D4B4FF4A0721A801C4BF0221A80C1
:104C000020E0184BE8221A70174BF0221A80174B3D
:104C10004FF4A0721A8015E0124B48221A70124B02
:104C20004FF4A0721A80114BF0221A800AE00D4B4B
:104C300028221A700C4BF0221A800C4B4FF4A072F1
:104C40001A8000BF3620FFF7D3FE0022012105485D
:104C5000FFF7DDFE064AFB79137000BF0837BD463B
:104C600080BD00BFA40B00209C0B00209A0B0020ED
:104C7000980B002080B483B000AF78607B681B681D
:104C8000054A934202D1054B01221A7000BF0C372E
:104C9000BD465DF8047B70470030014014000020E1
:104CA00080B582B000AF78607B681B68054A93428C
:104CB00004D1054B01221A7025F0DCFB00BF083738
:104CC000BD4680BD003001401400002080B582B098
:104CD00000AF0346FB71FB792B3B2C2B00F2B0801D
:104CE00001A252F823F000BFE54D0008414E000834
:104CF0000F4E0008414E0008414E0008AF4D00081D
:104D0000A14D0008414E0008414E0008414E0008E8
:104D1000414E0008414E0008414E0008414E000837
:104D2000414E0008414E0008414E0008414E000827
:104D3000414E0008414E0008414E0008414E000817
:104D4000414E0008414E0008414E0008414E000807
:104D5000414E0008A14D0008414E0008414E000898
:104D60002F4E0008414E0008414E0008414E0008F9
:104D7000414E0008414E0008414E0008414E0008D7
:104D80009D4D0008414E0008C54D0008414E0008E9
:104D9000414E0008414E0008B94D000800BF52E0E6
:104DA0004FF080434FF08042DB6A53634BE04FF09B
:104DB000804300225A6346E0264B1A884FF0804316
:104DC0005A6340E04FF080435B6B9AB2214B1A80EC
:104DD0004FF080435B6B7C2B34D94FF080437D22B6
:104DE0005A632FE04FF08043DA6A4FF080435B6BE9
:104DF0009A4205D94FF080435A6B01325A6322E040
:104E00004FF080434FF08042DB6A53631BE04FF06A
:104E100080435B6B002B05D04FF080435A6B013A07
:104E20005A6310E04FF0804300225A630BE00021E8
:104E3000094804F0ADFF4FF08043FA225A6302E0C4
:104E400000BF00E000BF4FF080435B6B184608379F
:104E5000BD4680BDA60B0020E409002080B400AF51
:104E6000064B1B78DBB2002B0CBF01230023DBB207
:104E70001846BD465DF8047B704700BF1400002053
:104E800090B585B000AFF860084611461A46034653
:104E90007B810B463B811346FB807A89FB88134458
:104EA0009BB2013B9CB23A893B8C13449BB2013BC1
:104EB0009BB2398978892246FFF700FEFB883A8C3D
:104EC00002FB03F35B0001221946F868FFF79FFD20
:104ED00000BF1437BD4690BDD458C4500433C41825
:104EE0008C42F9D37047036004308842FBD370478B
:104EF0000C488546FEF760FE0B480C490C4A00231F
:104F0000FFF7EDFF0B480C490C4A0023FFF7E7FFC2
:104F10000B480C490023FFF7E8FF3FF06BF8FDF763
:104F2000B5FAFEE7000003200800002094020020EC
:104F300028230608E4010320670A0320FA2706084D
:104F4000E0040020CC510020FEE7000080B582B0D4
:104F500000AF0023FB710C4B1B680B4A43F48073BA
:104F60001360032000F0B4F90F2000F00FF803469F
:104F7000002B02D00123FB7101E0FEF76CFCFB79F2
:104F800018460837BD4680BD0040005880B584B043
:104F900000AF78600023FB73174B1B78002B24D0E5
:104FA00002F010FF0246144B1B7819464FF47A7337
:104FB000B3FBF1F3B2FBF3F3184600F0CAF9034672
:104FC000002B0FD17B680F2B09D8002279684FF096
:104FD000FF3000F088F9094A7B68136007E001237D
:104FE000FB7304E00123FB7301E00123FB73FB7BF4
:104FF00018461037BD4680BD1C0000201800002058
:1050000080B400AF064B1B781A46064B1B6813444E
:10501000044A136000BFBD465DF8047B704700BFC3
:105020001C000020A80B002080B400AF034B1B68BD
:105030001846BD465DF8047B704700BFA80B0020F2
:1050400080B400AF034B1B681846BD465DF8047B77
:10505000704700BF1800002080B400AF034B1B78DE
:105060001846BD465DF8047B704700BF1C00002059
:1050700080B485B000AF78607B6803F00703FB6005
:105080000C4BDB68BB60BA684FF6FF031340BB6094
:10509000FB681A02BB68134343F0BF6343F4003359
:1050A000BB60044ABB68D36000BF1437BD465DF8DF
:1050B000047B704700ED00E080B400AF044BDB6878
:1050C0001B0A03F007031846BD465DF8047B7047D2
:1050D00000ED00E080B483B000AF0346FB7197F9A8
:1050E0000730002B0BDBFB7903F01F02074997F910
:1050F00007305B09012000FA02F241F8232000BFCB
:105100000C37BD465DF8047B704700BF00E100E04E
:1051100080B483B000AF0346FB7197F90730002BD2
:1051200012DBFB7903F01F020A4997F907305B098C
:10513000012000FA02F2203341F82320BFF34F8F01
:1051400000BFBFF36F8F00BF00BF0C37BD465DF8D7
:10515000047B704700E100E080B483B000AF0346F9
:10516000FB7197F90730002B0CDBFB7903F01F0272
:10517000074997F907305B09012000FA02F2403332
:1051800041F8232000BF0C37BD465DF8047B704713
:1051900000E100E080B483B000AF0346FB7197F9F3
:1051A0000730002B0CDBFB7903F01F02074997F94E
:1051B00007305B09012000FA02F2603341F8232036
:1051C00000BF0C37BD465DF8047B704700E100E08E
:1051D00080B483B000AF03463960FB7197F90730A4
:1051E000002B0ADB3B68DAB20C4997F90730120151
:1051F000D2B20B4483F800230AE03B68DAB20849D4
:10520000FB7903F00F03043B1201D2B20B441A7670
:1052100000BF0C37BD465DF8047B704700E100E03D
:1052200000ED00E080B489B000AFF860B9607A604A
:10523000FB6803F00703FB61FB69C3F10703042B61
:1052400028BF0423BB61FB690433062B02D9FB6929
:10525000033B00E000237B614FF0FF32BB6902FAA1
:1052600003F3DA43BB681A407B699A404FF0FF3181
:105270007B6901FA03F3D9437B680B40134318465B
:105280002437BD465DF8047B7047000080B582B0CE
:1052900000AF78607B68013BB3F1807F01D30123CD
:1052A0000FE00A4A7B68013B53600F214FF0FF304B
:1052B000FFF78EFF054B00229A60044B07221A600D
:1052C000002318460837BD4680BD00BF10E000E04F
:1052D00080B582B000AF78607868FFF7C9FE00BF84
:1052E0000837BD4680BD80B586B000AF0346B960C3
:1052F0007A60FB73FFF7E0FE78617A68B9687869D5
:10530000FFF790FF024697F90F3011461846FFF756
:105310005FFF00BF1837BD4680BD80B582B000AFCB
:105320000346FB7197F907301846FFF7D3FE00BF1D
:105330000837BD4680BD80B582B000AF0346FB7123
:1053400097F907301846FFF7E3FE00BF0837BD4660
:1053500080BD80B582B000AF78607868FFF796FFB7
:10536000034618460837BD4680BD80B582B000AF01
:105370000346FB7197F907301846FFF7EDFE00BFB3
:105380000837BD4680BD80B582B000AF0346FB71D3
:1053900097F907301846FFF7FDFE00BF0837BD46F6
:1053A00080BD000080B582B000AF78607B68002BC4
:1053B00001D1012354E07B685B7FDBB2002B05D178
:1053C0007B6800221A777868FCF7A2F87B680222D3
:1053D0005A777B681B79002B0CD17B681B68224AAB
:1053E0005A617B681B689A687B681B6822F0180208
:1053F0009A600CE07B6899687B68DB681A4678687D
:1054000000F034F80346002B01D0012328E07B682C
:105410005B79002B05D17B681B684FF0FF321A6166
:1054200004E07B681B687A6812691A617B681B68F4
:105430009B6823F060017B685A697B681B680A439C
:105440009A607B681B689B6823F080017B689A697F
:105450007B681B680A439A607B6801225A770023A5
:1054600018460837BD4680BDB71DC10480B487B05B
:1054700000AFF860B9607A600023FB751F233B61C1
:10548000BB6803F00103002B02D10123FB7563E02D
:1054900000BF3B695A1E3A61002B09D03B6903F0FB
:1054A0001F03BA6822FA03F303F00103002BF0D0C4
:1054B0007B68182B46D801A252F823F04B55000800
:1054C0004555000845550008455500084555000854
:1054D0004555000845550008455500083955000850
:1054E0004555000845550008455500084555000834
:1054F0004555000845550008455500082D5500083C
:105500004555000845550008455500084555000813
:105510004555000845550008455500082155000827
:105520003B69062B13D90123FB7510E03B69072B60
:105530000FD90123FB750CE03B690F2B0BD901231D
:10554000FB7508E00123FB7506E000BF04E000BF27
:1055500002E000BF00E000BFFB7D002B0DD1FB6827
:105560001B68BA685A61FB681B689B6823F01801C6
:10557000FB681B687A680A439A60FB7D18461C37F3
:10558000BD465DF8047B704780B584B000AF78609D
:105590007B68002B01D101238EE07B681B681A46D3
:1055A000474B9A420FD87B681B681A46454B1344F9
:1055B000454AA2FB03231B099A007B685A647B6857
:1055C000424A1A640EE07B681B681A46404B13443B
:1055D0003D4AA2FB03231B099A007B685A647B683F
:1055E0003C4A1A647B68022283F825207B681B688A
:1055F0001B68FB60FB6823F4FF4323F07003FB6030
:105600007B689A687B68DB681A437B681B691A436E
:105610007B685B691A437B689B691A437B68DB691B
:105620001A437B681B6A1343FA681343FB607B6869
:105630001B68FA681A60786800F080FA7B689B68DB
:10564000B3F5804F02D17B6800225A607B685A68AC
:105650007B689B6C02F03F021A607B68DB6C7A68A7
:10566000126D5A607B685B68002B10D07B685B68AA
:10567000042B0CD8786800F09FFA7B685B6D0022E1
:105680001A607B689B6D7A68D26D5A6008E07B680F
:1056900000225A657B6800229A657B680022DA65E1
:1056A0007B680022DA637B68012283F825207B680F
:1056B000002283F82420002318461037BD4680BD01
:1056C00007040240F8FFFDBFCDCCCCCC0000024067
:1056D000F8FBFDBF0004024080B586B000AFF86063
:1056E000B9607A603B600023FB75FB6893F8243057
:1056F000012B01D1022366E0FB68012283F82420FC
:10570000FB6893F82530DBB2012B55D1FB680222F0
:1057100083F82520FB680022DA63FB681B681A689F
:10572000FB681B6822F001021A603B687A68B9685E
:10573000F86800F0C5F9FB681B6B002B08D0FB680C
:105740001B681A68FB681B6842F00E021A600FE0C3
:10575000FB681B681A68FB681B6822F004021A6069
:10576000FB681B681A68FB681B6842F00A021A6033
:10577000FB689B6C1B6803F48033002B07D0FB682D
:105780009B6C1A68FB689B6C42F480721A60FB6821
:105790005B6D002B07D0FB685B6D1A68FB685B6D67
:1057A00042F480721A60FB681B681A68FB681B6809
:1057B00042F001021A6005E0FB68002283F8242011
:1057C0000223FB75FB7D18461837BD4680BD80B4AB
:1057D00083B000AF78607B68002B01D101234FE0DC
:1057E0007B6893F82530DBB2022B08D07B6804225B
:1057F000DA637B68002283F82420012340E07B6881
:105800001B681A687B681B6822F00E021A607B68AE
:105810009B6C1A687B689B6C22F480721A607B68B0
:105820001B681A687B681B6822F001021A607B689B
:105830005B6C03F01C027B681B6C012101FA02F215
:105840005A607B68DB6C7A68126D5A607B685B6DAE
:10585000002B0CD07B685B6D1A687B685B6D22F453
:1058600080721A607B689B6D7A68D26D5A607B6823
:10587000012283F825207B68002283F8242000235E
:1058800018460C37BD465DF8047B704780B584B080
:1058900000AF78600023FB737B6893F82530DBB2A0
:1058A000022B05D07B680422DA630123FB7347E0F7
:1058B0007B681B681A687B681B6822F00E021A60FE
:1058C0007B681B681A687B681B6822F001021A60FB
:1058D0007B689B6C1A687B689B6C22F480721A60F0
:1058E0007B685B6C03F01C027B681B6C012101FA76
:1058F00002F25A607B68DB6C7A68126D5A607B68D2
:105900005B6D002B0CD07B685B6D1A687B685B6DF0
:1059100022F480721A607B689B6D7A68D26D5A603F
:105920007B68012283F825207B68002283F82420ED
:105930007B689B6B002B03D07B689B6B78689847D8
:10594000FB7B18461037BD4680BD80B584B000AFE4
:1059500078607B681B6C1B68FB607B681B681B683E
:10596000BB607B685B6C03F01C0304229A40FB68FD
:105970001340002B26D0BB6803F00403002B21D07A
:105980007B681B681B6803F02003002B07D17B6832
:105990001B681A687B681B6822F004021A607B6827
:1059A0005B6C03F01C027B681B6C042101FA02F2A1
:1059B0005A607B681B6B002B71D07B681B6B78680F
:1059C00098476CE07B685B6C03F01C0302229A40F2
:1059D000FB681340002B2ED0BB6803F00203002BA2
:1059E00029D07B681B681B6803F02003002B0BD1B8
:1059F0007B681B681A687B681B6822F00A021A60C1
:105A00007B68012283F825207B685B6C03F01C0215
:105A10007B681B6C022101FA02F25A607B6800224B
:105A200083F824207B68DB6A002B38D07B68DB6A34
:105A30007868984733E07B685B6C03F01C030822AE
:105A40009A40FB681340002B2AD0BB6803F0080380
:105A5000002B25D07B681B681A687B681B6822F0C6
:105A60000E021A607B685B6C03F01C027B681B6C87
:105A7000012101FA02F25A607B680122DA637B6835
:105A8000012283F825207B68002283F824207B688C
:105A90005B6B002B04D07B685B6B7868984700BF1A
:105AA00000BF1037BD4680BD80B483B000AF7860C2
:105AB0007B68DB6B18460C37BD465DF8047B70478E
:105AC00080B485B000AFF860B9607A603B60FB6875
:105AD000DB6CFA68126D5A60FB685B6D002B04D0BA
